S01200005241364D315F50726F6A2E73726563D1
S315000000000008FE1F5913000041120000551300009E
S31500000010551300005513000055130000551300003A
S315000000200000000000000000000000005513000062
S315000000305513000000000000551300005513000082
S315000000400D1000000D100000000000000000000070
S31500000050000000000000000000000000000000009A
S31500000060000000000000000000000000000000008A
S31500000070000000000000000000000000000000007A
S31500000080000000000000000000000000000000006A
S31500000400FFFFFFFFFFFDFFFFFCFFFFFFFFFFFFFFFB
S31500000410FCFFFFFFFFFFFFFFFCFFFF00FFFFFF00EA
S31500000420FCFF0F20FFFF0F20FCFF7F40FFFF7F40F8
S31500000430FCFF0D40FFFF0D40FFFFFFFFFFFFFFFF2B
S31500000440FFFFFFFFFFFFFFFFFFFFFFFFFFFFFFFFB6
S31500000450FFFFFFFFFFFFFFFFFFFFFFFFFFFFFFFFA6
S31500000460FFFFFFFFFFFFFFFFFFFFFFFFFFFFFFFF96
S31500000470FFFFFFFFFFFFFFFFFFFFFFFFFFFFFFFF86
S31500000480FFFFFFFFFFFFFFFFFFFFFFFFFFFFFFFF76
S31500000490FFFFFFFFFFFFFFFFFFFFFFFFFFFFFFFF66
S315000004A0FFFFFFFFFFFFFFFFFFFFFFFFFFFFFFFF56
S315000004B0FFFFFFFFFFFFFFFFFFFFFFFFFFFFFFFF46
S315000004C0FFFFFFFFFFFFFFFFFFFFFFFFFFFFFFFF36
S315000004D0FFFFFFFFFFFFFFFFFFFFFFFFFFFFFFFF26
S315000004E0FFFFFFFFFFFFFFFFFFFFFFFFFFFFFFFF16
S315000004F0FFFFFFFFFFFFFFFFFFFFFFFFFFFFFFFF06
S3150000050010B5054C237833B9044B13B10448AFF347
S3150000051000800123237010BD1001FE1F00000000A3
S31500000520C41C000008B5034B1BB103490348AFF3D5
S31500000530008008BD000000001401FE1FC41C00005E
S31500000540022800D07047024B0248596800F098BA5A
S31500000550E41A00005001FE1F30B587B003A9044617
S315000005600E4800F01DFB0E4803A900F019FB08B168
S3150000057007B030BD05990B4B04FB01F10546A3FB03
S31500000580013149092A460548019100F059FB0199B4
S3150000059003482A4600F054FB07B030BD5801FE1F41
S315000005A07801FE1F1F85EB511849194A194808B5ED
S315000005B00B68013303FB02F2B0EBB20F0B6021D2E2
S315000005C01549164A0B681648013303FB02F20B6005
S315000005D0144BB0EBF20F1A7802D342B901221A700B
S315000005E0BDE8084010484FF4837100F02BB9012A8A
S315000005F004BF00221A70BDE808400B484FF483710F
S3150000060000F020B90A20FFF7A7FFD9E72C01FE1F4B
S315000006104F56CB1B739F5D004401FE1F917EFB3A34
S31500000620711B0D004801FE1F5001FE1F2DE9F04110
S315000006304F4D2B78032B54D8DFE803F06D6155023C
S31500000640DFF844814B4CD8F800304B4F4B4EA4FB9F
S3150000065003239B093B60336000F022FF5C23336079
S3150000066000F01EFFD8F80020DFF82081A4FB02135B
S315000006709B09434C4FF47A7101FB1323C8F80030F1
S31500000680A4FB03235B093B60336000F009FF5B2397
S31500000690336000F005FFD8F80020DFF8F480A4FBF3
S315000006A002135B096421374C01FB1323A4FB0312DD
S315000006B0D20802EB820252003A603260C8F800307B
S315000006C000F0EEFED8F80020A4FB0213DB0803EBD3
S315000006D08303A2EB43033B60336000F0E1FE042397
S315000006E02B70BDE8F081DFF8A080254CD8F80030EB
S315000006F0214F224EA4FB03235B093B60C4E7224E35
S315000007003368142B11D9A3F115024D2A12D9FF23F0
S315000007102B70BDE8F0811C4A184B12681A6000F075
S31500000720BFFE04232B70BDE8F081144A136000F06D
S31500000730B7FEECE7134C104FDFF84080A4FB032311
S31500000740DB0803EB83035B003B60C8F8003000F076
S31500000750A7FE3268A4FB0213DB0803EB8303A2EBBC
S3150000076043033B60C8F8003000F09AFECFE700BFB5
S315000007703801FE1FD34D62103C01FE1F4C01FE1FC7
S315000007801F85EB51CDCCCCCC3401FE1F4001FE1FA2
S315000007903001FE1FF8B500F083FE0C490C4800F04E
S315000007A0E1FA0C490C4800F0DDFA40B10B4F0C4E53
S315000007B0042500243D603470FFF738FFFAE704484B
S315000007C000F0CAF9044800F0C7F9EFE7F01A000094
S315000007D05801FE1F401B00007801FE1F3401FE1F5A
S315000007E03801FE1F08B5FFF7D5FF002008BD00BF82
S315000007F000230360184670470B0A1B01044853FA8E
S3150000080081F150F82130C3F3400300201370704784
S3150000081000080440090A490101F1804101F58021DF
S3150000082000204B6813807047090A490101F1804195
S3150000083023EA020001F580211A4042EA00428A605A
S3150000084000207047C8B2012383404AB91A040B0A34
S315000008505B0103F1804303F5802300209A60704713
S315000008609AB2F4E7090A490101F1804101F58021B4
S3150000087010B40C6802EA0300204362EA0302024055
S315000008805DF8044B0A600020704700BF090A490161
S3150000089001F1804101F5802100204B68C3F30F432D
S315000008A01380704710B40B0A5B0103F1804303F514
S315000008B08023C8B25C68012181408BB201EA1441F1
S315000008C0C91AB1FA81F1490900205DF8044B11708B
S315000008D0704700BF090A490101F1804123EA02007D
S315000008E001F580211A4042EA0042CA6000207047A2
S315000008F00B0A5B0103F18043012A03F580230AD02A
S31500000900D868C9B24FF480328A400243120C1204EE
S31500000910DA6000207047C8B2D96882400A4392B2B2
S31500000920DA600020704700BF38B50488002C4DD02F
S3150000093043680021043303EBC40040F202450C4631
S3150000094040F2034C40F2044E0FE0624530D153F8BA
S31500000950042C02F0B852B2F1807F14BF41F00201BC
S3150000096044F002040833834211D01A88AA42ECD11B
S3150000097053F8042C02F0B852B2F1807F03F1080359
S3150000098014BF41F0010144F001048342EDD1C94393
S31500000990CDB2012000F0B4FC0D4B93F8BB241443F8
S315000009A02C4083F8BB440120BDE8384000F078BCF9
S315000009B07245D7D153F8042C02F0B852B2F1807FB9
S315000009C00CBF44F0040441F00401CBE7FF25E0E747
S315000009D000E00140F8B50446FFF7A6FFEFF31082EA
S315000009E0012383F31088234E33681BB92249CB7049
S315000009F04023CB7033680133336082F31088258837
S31500000A002DB362681D4C013DADB202F1080101EB48
S31500000A10C50500E008311068928810F4803F4FEA5F
S31500000A2012235FFA82FC0CEB031E09D054F82E70D9
S31500000A3020F480326FF3104744F82E7044F82E20CD
S31500000A401B0163448D4244F823000A46E2D1EFF3CA
S31500000A501082012383F31088336813B13368013B96
S31500000A60336033681BB904498020CB70C87082F3A9
S31500000A701088F8BDD801FE1F000D04400008044090
S31500000A8008B50346034A1A600846FFF7A3FF00208D
S31500000A9008BD00BF54524F5008B50846FFF79AFFED
S31500000AA0002008BD70B584B002AB012668460C462E
S31500000AB01546ADF80C100292ADF800600193FFF7F1
S31500000AC033FFEFF3108286F310881D490B681BB9BC
S31500000AD01C48C3704023C3700B6801330B6082F35C
S31500000AE01088EA034FEA1423E4B219D41B01164A0C
S31500000AF0234442F82350EFF31082012383F3108836
S31500000B000B6813B10B68013B0B600B681BB90D49F1
S31500000B108020CB70C87082F31088002004B070BDAE
S31500000B2004EB0310084A52F820606FF3104642F8AF
S31500000B30206025F4803642F820601B01D7E700BF0D
S31500000B40D801FE1F000D0440000804400346D3E907
S31500000B5002230020936070470346D3E90223002056
S31500000B605360704770B5836984B004468C46164658
S31500000B7001AD9BB193E8070085E8070083F804C040
S31500000B80E2691A609E60184662699047A3691BB1C4
S31500000B9095E8070083E8070004B070BD2B46EDE733
S31500000BA082680C48536E01338B600B4BD26A006A25
S31500000BB01B68C0F3026C03FA0CF300F00700C2F3E3
S31500000BC00262C3405200D34001224B600A700020EB
S31500000BD0704700BF00E001406403FE1F30B44C6E56
S31500000BE001342AB1944203D9013A30BC1A607047E5
S31500000BF0029D496B0078ED0754BF01F01F01C1F358
S31500000C000441032808D9090981F001016AB9A1B98B
S31500000C10022230BC5A60704701F00C01A1F10401B8
S31500000C20B1FA81F14909002AF1D0944201D800298C
S31500000C30EED1032230BC5A607047002CE8D0F8E7AA
S31500000C402DE9F04184B0144606460F464FF0FF33B7
S31500000C5000220094039202933A4602ABD0E90101C6
S31500000C60FFF7BCFFB368039A1D6B04F003085AB97B
S31500000C7014F0080F0CBF02210421A0071DD503EBB9
S31500000C8081010298C864086561061ED5196CB8F121
S31500000C90010F41F48001196406D025F4403545EA78
S31500000CA00245B8F1000F03D025F0407545EA02650C
S31500000CB000201D6304B0BDE8F0814144123103EB0E
S31500000CC08101029848606106E0D4B8F1010F12D0A4
S31500000CD025F44035022C45EA0245E2D1002AE3D04C
S31500000CE00120009019463A4602AB7068FFF776FF7E
S31500000CF0039AB368D8E7022CD6D1002AD4D0EFE7FE
S31500000D00002800DA704710B400F16043134C03F575
S31500000D1061430901C9B283F8001300F1C001104B09
S31500000D2044F8202053F821206FF3104243F8212085
S31500000D3053F82130BFF35F8F43099B0003F16043F3
S31500000D40012203F5614300F01F0002FA00F0C3F828
S31500000D50800118605DF8044B704700BFDC01FE1F80
S31500000D60006000402DE9F0410B7C0D46012101FA9F
S31500000D7003F2C260C2F30C0284B004464560002A46
S31500000D8040F0FE80017403F58003D5E9051203F5F2
S31500000D90F0631B02A3600023EE696161C4E90632B9
S31500000DA0EFF31080012181F31088954B2A7C082AE5
S31500000DB0D3F8082134BF6FF020076FF040073A40A0
S31500000DC0C3F80821D3F8083180F31088E3681B07BD
S31500000DD00CD0EFF3108081F310888A4AE1685388BB
S31500000DE09BB223EA0103538080F31088A3686868E6
S31500000DF04FF425421A600022DA62DA639A64297A8D
S31500000E0095F800C04908BCF1030F4FEA016100F1F3
S31500000E10FF3700F0B880D6E9068ED9624FF0004160
S31500000E201961596199614FF0FF315A6203929A62D2
S31500000E300291C3F81C80C3F820E09F665F66F76ADC
S31500000E40BCF1000F40F0D080410801390291BC4648
S31500000E500122032059659965BCF1000F5BD13178F9
S31500000E60002972D195F800C0B178D1B196F803E0A7
S31500000E70BCF1020F4FEA0E1141EA8E1100F0AE806E
S31500000E80BCF1030F00F0B980BEF1000F14BF4FF0A4
S31500000E90090E4FF0060E41EA0E0147EA014747F0F8
S31500000EA0807795F810E0FF2121FA0EF111F001018B
S31500000EB001D0002159649963C3F8881096F821106F
S31500000EC096F820E0490741EA4E310F43BCF1010F85
S31500000ED04FF4AA01196431D0E168D9605F631863E1
S31500000EE01A63697C95F912002246FFF709FF96F806
S31500000EF0221096F924002246FFF702FF96F92500F4
S31500000F0096F823102246FFF7FBFE3F4B2360002096
S31500000F1004B0BDE8F08195F810C0FF2121FA0CF16C
S31500000F2011F001010ED19963C3F8881095F800C03D
S31500000F304FF4AA01BCF1010F1964CDD10021D96487
S31500000F401965C9E700215964EDE796F801E095F8BF
S31500000F5000C04FEA0E11BCF1020F41EA8E1140D0DB
S31500000F60BCF1030F47D0BEF1000F14BF4FF0090EBE
S31500000F704FF0060E41EA0E010F4347F4807773E700
S31500000F8000220274FFE6D6E906C041F48031D96238
S31500000F904FF0004119610392596199615A629A6250
S31500000FA0C3F81CC04FF0FF3218629F665F66F76A8F
S31500000FB00292194600230093EA68606802ABFFF7C5
S31500000FC00DFEDDE90210020642EA004242F003008D
S31500000FD0A368D6F82CC042F001023BE74FF0090E99
S31500000FE059E74FF0090EC5E7BCF1010FE1D16246A2
S31500000FF00320BC462EE7E646BCE7E6464BE700BFC5
S31500001000006F044000B007405450470030B5EFF37E
S315000010100383103B5BB21E4903F1C00C9A0051F8E2
S315000010202C0002F180426FF3104041F82C0002F5CB
S31500001030C042D2F80003174850F82300446894F8D9
S3150000104000E0BEF1010F08D043692BB10022BDE8D4
S3150000105030401146FFF786BD30BDD0E90254AC6082
S315000010600024AC64EC642C6551F82C5064F31045F4
S3150000107041F82C50D2F80023BFF35F8F5A09064976
S3150000108003F01F0360320EFA03F341F82230DBE768
S3150000109000600040DC01FE1F00E100E0064B07494E
S315000010A093F826001A6A51F820300549C2F3026205
S315000010B0D3400B60704700BF00E00140F800FE1F00
S315000010C06403FE1F38B53A4B3A493B4C3B4A3C4D0C
S315000010D04AF20350A3F8FE030020A1F800013949A3
S315000010E093F826006160384922604FF40042C4E953
S315000010F002213649C4E90421196A54F82020C1F3B3
S315000011000261CA402A602021092283F8131483F859
S31500001110A22093F88024002A42D0254A00230621E3
S3150000112082F8813482F8803482F8A51082F8323051
S3150000113092F83C301907FBD54FF41C51002311855A
S3150000114082F82A301A4A92F83C309B06FBD5194998
S31500001150022381F81C311E4B1362052382F82630C8
S3150000116092F8263054F82300146AC4F30264E0406F
S315000011702860012360244FF4254082F8303082F83D
S31500001180523082F82440A2F8FE03A1F80431B1F8E7
S3150000119004319BB2002BFAD10123A1F8003138BDEE
S315000011A0012183F8801440F2C44000F01BF8B4E734
S315000011B000E0014000C00140F800FE1F002D310193
S315000011C06403FE1F00127A00001BB700001C4E0EBF
S315000011D021120121704700BFA0F101000028FBD1B8
S315000011E0704700BF30B5144D144A00FB01F14FF4AF
S315000011F07A732868B2FBF0F2A1FB03C44FF0FF300C
S315000012004FF0000E60457EEB040407D3BCFBF2F002
S31500001210800878B1BDE83040FFF7DEBF9200B1FB31
S31500001220F2F1A1FB031388427EEB0303F2D30846D7
S315000012300028EFD130BD00BF6403FE1F00CA9A3BF1
S315000012400B4B70B5B3F840510A4E0024ADB225FAE7
S3150000125004F3DB07E0B203D556F8243003B1984710
S315000012600134102CF3D1024BA3F8305170BD00BFEE
S31500001270006000409801FE1F10B4074A074C002387
S3150000128003F1C001013332F8020F44F82100602B4C
S31500001290F6D15DF8044B7047C61B000000600040A5
S315000012A0EFF31081012383F31088124B33F81020DB
S315000012B092B22AB133F81020013A92B223F81020E4
S315000012C033F810309BB293B90B4A10B4B2F8FE3320
S315000012D00A4C9BB234F8100043F4254323EA00037A
S315000012E0A2F8FE3381F310885DF8044B704781F352
S315000012F0108870475C03FE1F00E00140BC1C000024
S3150000130030B4EFF31081012383F310880E4A32F8CC
S3150000131010309BB26BB90D4C0D4DB4F8FE3335F859
S3150000132010C09BB243EA0C0343F425439BB2A4F8D6
S31500001330FE3332F8103001339BB222F8103081F3BD
S31500001340108830BC704700BF5C03FE1F00E0014000
S31500001350BC1C000000BE704708B500F003F8FFF79C
S3150000136041FAFEE7224B70B54FF47002214DC3F8E7
S31500001370882000209D60FFF7E3F8FFF7A3FE012019
S31500001380FFF7DEF81C4B29681C481D4D00244FF45E
S3150000139025429C801A80A1F580629A60194AD9601C
S315000013A04FF480560121A5F82061121A9980214632
S315000013B000F05CFB1448154A1549164D121A00F048
S315000013C047FB154B5B1BA34206DD9E1055F8043BFD
S315000013D001349847A642F9DCFFF760FE0220FFF7CA
S315000013E0AFF8FFF749FFBDE870400020FFF7F2BEF7
S315000013F000ED00E000000000000D00401001FE1F9F
S3150000140000600040FC03FE1F0000FE1FF800FE1FE8
S31500001410C81C0000F000FE1FF400FE1F70B51A4C39
S315000014201A4800F06DFA1949204600F0F5FA012530
S3150000143017482574FFF790FB1648FFF78DFB2A46E1
S31500001440154D16484FF48371FFF7FCF962692B6856
S315000014509A4208D20D4E3146204600F0DDFA626906
S315000014602B689A42F7D30D4800224FF48371FFF799
S31500001470E9F9237C022BFCD10548FFF767FBBDE8A1
S3150000148070400448FFF762BB7003FE1F8C03FE1F0B
S315000014905801FE1F7801FE1F6803FE1F5001FE1F44
S315000014A070B5A24CA24D23680022013B2A605B2B3B
S315000014B06CD8DFE813F00902FB01ED01DF01D10171
S315000014C0C301B501A70199018B017D016F0161017E
S315000014D0530145012C011C010C01FC00EC006B00C2
S315000014E06B006B006B006B006B006B006B006B009E
S315000014F0DC006B006B006B006B006B006B006B001D
S315000015006B006B00CC006B006B006B006B006B001C
S315000015106B006B006B006B00BC006B006B006B001C
S315000015206B006B006B006B006B006B00AC006B001C
S315000015306B006B006B006B006B006B006B006B004D
S315000015409C006B006B006B006B006B006B006B000C
S315000015506B006B008C006B006B006B006B006B000C
S315000015606B006B006B006B007C006C005C00714EC6
S315000015707149D6F8E0207148042300F0B9F9D6F88D
S31500001580E4302B60FFF74AFF0123236070BD694EEC
S315000015906949D6F8D8206948042300F0A9F9D6F895
S315000015A0DC302B60FFF73AFF5C23236070BD614E91
S315000015B06149D6F8D0206148042300F099F9D6F89D
S315000015C0D4302B60FFF72AFF5B23236070BD594E92
S315000015D05949D6F8C8205948042300F089F9D6F8A5
S315000015E0CC302B60FFF71AFF5A23236070BD514E93
S315000015F05149D6F8C0205148042300F079F9D6F8AD
S31500001600C4302B60FFF70AFF5023236070BD494E9C
S315000016104949D6F8B8204948042300F069F9D6F8B4
S31500001620BC302B60FFF7FAFE4623236070BD414EA7
S315000016304149D6F8B0204148042300F059F9D6F8BC
S31500001640B4302B60FFF7EAFE3C23236070BD394EB1
S315000016503949D6F8A8203948042300F049F9D6F8C4
S31500001660AC302B60FFF7DAFE3223236070BD314EBB
S315000016703149D6F8A0203148042300F039F9D6F8CC
S31500001680A4302B60FFF7CAFE2823236070BD294EC5
S315000016902949D6F898202948042300F029F9D6F8D4
S315000016A09C302B60FFF7BAFE1E23236070BD214ECF
S315000016B02149D6F890202148042300F019F9D6F8DC
S315000016C094302B60FFF7AAFE1423236070BD194ED9
S315000016D01949D6F888201948042300F009F9D6F8E4
S315000016E08C302B60FFF79AFE1323236070BD114EDA
S315000016F01149D6F880201148042300F0F9F8D6F8ED
S3150000170084302B60FFF78AFE1223236070BD094EDA
S315000017100949B26F0948042300F0EAF8F36F2B6019
S31500001720FFF77CFE1123236070BD00BF4C01FE1F36
S315000017306803FE1F0000FE1FE803FE1F7003FE1F66
S31500001740684E6949326F6948042300F0D1F8736F17
S315000017502B60FFF763FE1023236070BD614E624964
S31500001760B26E6248042300F0C3F8F36E2B60FFF7F5
S3150000177055FE0F23236070BD5A4E5B49326E5B489F
S31500001780042300F0B5F8736E2B60FFF747FE0E23B7
S31500001790236070BD534E5449B26D5448042300F083
S315000017A0A7F8F36D2B60FFF739FE0D23236070BD9C
S315000017B04C4E4D49326D4D48042300F099F8736D37
S315000017C02B60FFF72BFE0C23236070BD454E464968
S315000017D0B26C4648042300F08BF8F36C2B60FFF7DD
S315000017E01DFE0B23236070BD3E4E3F49326C3F48C1
S315000017F0042300F07DF8736C2B60FFF70FFE0A23BD
S31500001800236070BD374E3849B26B3848042300F068
S315000018106FF8F36B2B60FFF701FE0923236070BDA1
S31500001820304E3149326B3148042300F061F8736B56
S315000018302B60FFF7F3FD0823236070BD294E2A496C
S31500001840B26A2A48042300F053F8F36A2B60FFF7C4
S31500001850E5FD0723236070BD224E2349326A2348E3
S31500001860042300F045F8736A2B60FFF7D7FD0623C3
S31500001870236070BD1B4E1C49B2691C48042300F04E
S3150000188037F8F3692B60FFF7C9FD0523236070BDA8
S31500001890144E154932691548042300F029F8736976
S315000018A02B60FFF7BBFD0423236070BD0D4E0E4970
S315000018B0B2680E48042300F01BF8F3682B60FFF7AC
S315000018C0ADFD0323236070BD064E07493268074805
S315000018D0042300F00DF873682B60FFF79FFD0223C9
S315000018E0236070BD0000FE1FE803FE1F7003FE1F8D
S315000018F00023C0E90533016003744260704700BFEE
S315000019002423C0E91400A0F858307047F0B5D1E997
S31500001910144701F150052B1BBC424FEA630321D942
S3150000192004EB4206B54267D900F1080C002A69D0DB
S315000019303CF9023B03F5004303EB8303C3F38F2318
S3150000194024F8023BB442F3D1B1F858300E659B1A25
S315000019509BB2A1F858304369B5421A44426100D897
S315000019600965F0BD08D204EB4206B742F9D900F189
S31500001970080C002ADCD1E7E7B1F85860B6B2964207
S31500001980EFD904EB4206B542CED89DB200F1080667
S31500001990002D3ED04FEA450E04EB450C374637F98D
S315000019A0023B03F5004303EB8303C3F38F2324F8C1
S315000019B0023B6445F3D1531B002B76444FEA4307A1
S315000019C00EDD01EB43040D4636F9023B03F50043F9
S315000019D003EB8303C3F38F2325F8023BA542F3D120
S315000019E0B1F858309B1A9BB2A1F8583043690F449E
S315000019F01A440F654261F0BD7F1A03EB6707BA42CE
S31500001A00C3DBF0BDB1F858300E659BB2A1F8583073
S31500001A10F0BDAE46CFE700BFB1F858309BB2032BFE
S31500001A2013D910B4094C23785BB14368B3F5803FF2
S31500001A308CBF00230123237004225DF8044BFFF7BB
S31500001A4065BF436802334360F0E770476C03FE1FCF
S31500001A500A44914200F1FF3300D1704710B511F8E6
S31500001A60014B03F8014F9142F9D110BD02440346E0
S31500001A70934200D1704703F8011BF9E74275696C80
S31500001A807420776974682052656E657361732041AE
S31500001A906476616E63656420466C657869626C6520
S31500001AA020536F667477617265205061636B61675E
S31500001AB0652076657273696F6E20342E322E300083
S31500001AC0342E322E3000000000000204F8B500BFAC
S31500001AD0F8BC08BC9E467047F8B500BFF8BC08BC09
S31500001AE09E4670475001FE1F901B0000881C000098
S31500001AF000000000983A0000000000004C1D0000A5
S31500001B0008010000A905000000000000101B0000ED
S31500001B1001010100000000000000000000000000BC
S31500001B2000000000000000000000000000000000AF
S31500001B300000FFFFDFDF00000000000000000000E3
S31500001B4000000000280500000000000094020000CC
S31500001B50020401000000000000000000601B0000FD
S31500001B60010000000000000000000000000000006E
S31500001B70000000000000000000000000000000005F
S31500001B800000FFFFDFDF0000000000000000000093
S31500001B9006000000981B000000000103030100007E
S31500001BA0040000000601000000000100080100001A
S31500001BB00000010009010000000001000A01000008
S31500001BC000000100000300000601CA00000000003A
S31500001BD000000000000000000000000000000000FF
S31500001BE000000000000000000000000000000000EF
S31500001BF000000000000000000000000000000000DF
S31500001C0000000000000000000000000000000000CE
S31500001C1000000000000000000000000000000000BE
S31500001C2000000000000000000000000000000000AE
S31500001C30000000000000000000000000000000009E
S31500001C40000000000000000000000000000000008E
S31500001C50000000000000000000000000000000007E
S31500001C60000000000000000000000000000000006E
S31500001C70000000000000000000000000000000005E
S31500001C800000000000000000810A0000F1070000CB
S31500001C90990A0000A50A0000A5080000F108000046
S31500001CA0F907000045080000650800008D080000DF
S31500001CB0D5080000150800002908000001000200F0
S30D00001CC00800100000000000FE
S31500001CC800600000341100009E6800004012000009
S31500001CD8C2710000A81200001A7B000070100000F4
S31500001CE85C830000F0130000588D0000140E0000FD
S31500001CF86694000024150000FC9E0000581400009D
S31500001D082CA90000B81500000CB400003416000019
S31500001D182DBF0000301B0000C5CC0000D414000005
S31500001D2833D700001420000041E7000020210000FE
S31500001D38D5F7000020210000690801009020000066
S31500001D48B5180100802400000030010020210000A1
S31500001D589440010044240000BA520100C016000055
S31500001D681E5E0100C0110000A8660100981400005C
S31500001D78F870010030160000147C010018190000E4
S31500001D88A4880100041900002A9501002811000002
S31500001D983A9E01001C1600004CA901009C18000080
S31500001DA89EB501009017000000000000000000002A
S30D00001DB82505000001050000ED
S3150100A150FFFFFFFFFFFFFFFFFFFFFFFFFFFFFFFF08
S705000013598E
